{
  "_format": "hh-sol-artifact-1",
  "contractName": "BLOCHPool",
  "sourceName": "contracts/PoolBloch.sol",
  "abi": [
    {
      "inputs": [
        {
          "internalType": "address",
          "name": "_blochToken",
          "type": "address"
        },
        {
          "internalType": "address",
          "name": "_usdtToken",
          "type": "address"
        },
        {
          "internalType": "address",
          "name": "_usdqToken",
          "type": "address"
        },
        {
          "internalType": "address",
          "name": "initialOwner",
          "type": "address"
        }
      ],
      "stateMutability": "nonpayable",
      "type": "constructor"
    },
    {
      "anonymous": false,
      "inputs": [
        {
          "indexed": true,
          "internalType": "address",
          "name": "previousOwner",
          "type": "address"
        },
        {
          "indexed": true,
          "internalType": "address",
          "name": "newOwner",
          "type": "address"
        }
      ],
      "name": "OwnershipTransferred",
      "type": "event"
    },
    {
      "anonymous": false,
      "inputs": [
        {
          "indexed": false,
          "internalType": "address",
          "name": "account",
          "type": "address"
        }
      ],
      "name": "Paused",
      "type": "event"
    },
    {
      "anonymous": false,
      "inputs": [
        {
          "indexed": true,
          "internalType": "address",
          "name": "user",
          "type": "address"
        },
        {
          "indexed": false,
          "internalType": "uint256",
          "name": "blochAmount",
          "type": "uint256"
        },
        {
          "indexed": false,
          "internalType": "uint256",
          "name": "usdtAmount",
          "type": "uint256"
        }
      ],
      "name": "Purchase",
      "type": "event"
    },
    {
      "anonymous": false,
      "inputs": [
        {
          "indexed": true,
          "internalType": "address",
          "name": "user",
          "type": "address"
        },
        {
          "indexed": false,
          "internalType": "uint256",
          "name": "amount",
          "type": "uint256"
        }
      ],
      "name": "RewardClaimed",
      "type": "event"
    },
    {
      "anonymous": false,
      "inputs": [
        {
          "indexed": false,
          "internalType": "address",
          "name": "account",
          "type": "address"
        }
      ],
      "name": "Unpaused",
      "type": "event"
    },
    {
      "inputs": [],
      "name": "blochToken",
      "outputs": [
        {
          "internalType": "contract IERC20",
          "name": "",
          "type": "address"
        }
      ],
      "stateMutability": "view",
      "type": "function"
    },
    {
      "inputs": [],
      "name": "claimReward",
      "outputs": [],
      "stateMutability": "nonpayable",
      "type": "function"
    },
    {
      "inputs": [],
      "name": "getCurrentPhase",
      "outputs": [
        {
          "internalType": "uint256",
          "name": "",
          "type": "uint256"
        }
      ],
      "stateMutability": "view",
      "type": "function"
    },
    {
      "inputs": [],
      "name": "maxPurchaseAmount",
      "outputs": [
        {
          "internalType": "uint256",
          "name": "",
          "type": "uint256"
        }
      ],
      "stateMutability": "view",
      "type": "function"
    },
    {
      "inputs": [],
      "name": "minPurchaseAmount",
      "outputs": [
        {
          "internalType": "uint256",
          "name": "",
          "type": "uint256"
        }
      ],
      "stateMutability": "view",
      "type": "function"
    },
    {
      "inputs": [],
      "name": "owner",
      "outputs": [
        {
          "internalType": "address",
          "name": "",
          "type": "address"
        }
      ],
      "stateMutability": "view",
      "type": "function"
    },
    {
      "inputs": [],
      "name": "pause",
      "outputs": [],
      "stateMutability": "nonpayable",
      "type": "function"
    },
    {
      "inputs": [],
      "name": "paused",
      "outputs": [
        {
          "internalType": "bool",
          "name": "",
          "type": "bool"
        }
      ],
      "stateMutability": "view",
      "type": "function"
    },
    {
      "inputs": [
        {
          "internalType": "uint256",
          "name": "",
          "type": "uint256"
        }
      ],
      "name": "phases",
      "outputs": [
        {
          "internalType": "uint256",
          "name": "startTime",
          "type": "uint256"
        },
        {
          "internalType": "uint256",
          "name": "endTime",
          "type": "uint256"
        },
        {
          "internalType": "uint256",
          "name": "price",
          "type": "uint256"
        },
        {
          "internalType": "uint256",
          "name": "allocation",
          "type": "uint256"
        },
        {
          "internalType": "uint256",
          "name": "sold",
          "type": "uint256"
        }
      ],
      "stateMutability": "view",
      "type": "function"
    },
    {
      "inputs": [
        {
          "internalType": "uint256",
          "name": "blochAmount",
          "type": "uint256"
        }
      ],
      "name": "purchase",
      "outputs": [],
      "stateMutability": "nonpayable",
      "type": "function"
    },
    {
      "inputs": [
        {
          "internalType": "uint256",
          "name": "phaseIndex",
          "type": "uint256"
        }
      ],
      "name": "recoverUnsoldBLOCH",
      "outputs": [],
      "stateMutability": "nonpayable",
      "type": "function"
    },
    {
      "inputs": [],
      "name": "renounceOwnership",
      "outputs": [],
      "stateMutability": "nonpayable",
      "type": "function"
    },
    {
      "inputs": [],
      "name": "rewardInterval",
      "outputs": [
        {
          "internalType": "uint256",
          "name": "",
          "type": "uint256"
        }
      ],
      "stateMutability": "view",
      "type": "function"
    },
    {
      "inputs": [],
      "name": "rewardRate",
      "outputs": [
        {
          "internalType": "uint256",
          "name": "",
          "type": "uint256"
        }
      ],
      "stateMutability": "view",
      "type": "function"
    },
    {
      "inputs": [],
      "name": "rewardsEnabled",
      "outputs": [
        {
          "internalType": "bool",
          "name": "",
          "type": "bool"
        }
      ],
      "stateMutability": "view",
      "type": "function"
    },
    {
      "inputs": [
        {
          "internalType": "uint256",
          "name": "phaseIndex",
          "type": "uint256"
        },
        {
          "internalType": "uint256",
          "name": "startTime",
          "type": "uint256"
        },
        {
          "internalType": "uint256",
          "name": "endTime",
          "type": "uint256"
        }
      ],
      "name": "setPhaseTimings",
      "outputs": [],
      "stateMutability": "nonpayable",
      "type": "function"
    },
    {
      "inputs": [
        {
          "internalType": "uint256",
          "name": "_minAmount",
          "type": "uint256"
        },
        {
          "internalType": "uint256",
          "name": "_maxAmount",
          "type": "uint256"
        }
      ],
      "name": "setPurchaseLimits",
      "outputs": [],
      "stateMutability": "nonpayable",
      "type": "function"
    },
    {
      "inputs": [
        {
          "internalType": "bool",
          "name": "_enabled",
          "type": "bool"
        },
        {
          "internalType": "uint256",
          "name": "_rate",
          "type": "uint256"
        },
        {
          "internalType": "uint256",
          "name": "_interval",
          "type": "uint256"
        }
      ],
      "name": "setRewardParameters",
      "outputs": [],
      "stateMutability": "nonpayable",
      "type": "function"
    },
    {
      "inputs": [
        {
          "internalType": "address",
          "name": "newOwner",
          "type": "address"
        }
      ],
      "name": "transferOwnership",
      "outputs": [],
      "stateMutability": "nonpayable",
      "type": "function"
    },
    {
      "inputs": [],
      "name": "unpause",
      "outputs": [],
      "stateMutability": "nonpayable",
      "type": "function"
    },
    {
      "inputs": [
        {
          "internalType": "uint256",
          "name": "phaseIndex",
          "type": "uint256"
        },
        {
          "internalType": "uint256",
          "name": "newPrice",
          "type": "uint256"
        }
      ],
      "name": "updatePhasePrice",
      "outputs": [],
      "stateMutability": "nonpayable",
      "type": "function"
    },
    {
      "inputs": [],
      "name": "usdqToken",
      "outputs": [
        {
          "internalType": "contract USDQToken",
          "name": "",
          "type": "address"
        }
      ],
      "stateMutability": "view",
      "type": "function"
    },
    {
      "inputs": [],
      "name": "usdtToken",
      "outputs": [
        {
          "internalType": "contract IERC20",
          "name": "",
          "type": "address"
        }
      ],
      "stateMutability": "view",
      "type": "function"
    },
    {
      "inputs": [
        {
          "internalType": "address",
          "name": "",
          "type": "address"
        }
      ],
      "name": "userInfo",
      "outputs": [
        {
          "internalType": "uint256",
          "name": "blochPurchased",
          "type": "uint256"
        },
        {
          "internalType": "uint256",
          "name": "usdtSpent",
          "type": "uint256"
        },
        {
          "internalType": "uint256",
          "name": "lastPurchaseTime",
          "type": "uint256"
        }
      ],
      "stateMutability": "view",
      "type": "function"
    },
    {
      "inputs": [
        {
          "internalType": "uint256",
          "name": "amount",
          "type": "uint256"
        }
      ],
      "name": "withdrawUSDT",
      "outputs": [],
      "stateMutability": "nonpayable",
      "type": "function"
    }
  ],
  "bytecode": "0x60806040523480156200001157600080fd5b5060405162001e6738038062001e6783398101604081905262000034916200041c565b6200003f33620002da565b6000805460ff60a01b1916905560018055600280546001600160a01b038087166001600160a01b03199283161790925560038054868416908316179055600480549285169290911691909117905562000098816200032a565b6040518060a001604052806367748580815260200163679c38008152602001620f424081526020016a31a17e847807b1bc000000815260200160008152506005600060048110620000ed57620000ed62000479565b6005020160008201518160000155602082015181600101556040820151816002015560608201518160030155608082015181600401559050506040518060a0016040528063679c380081526020016367c410008152602001621e848081526020016a31a17e847807b1bc0000008152602001600081525060056001600481106200017b576200017b62000479565b6005020160008201518160000155602082015181600101556040820151816002015560608201518160030155608082015181600401559050506040518060a001604052806367c4100081526020016367ecee808152602001622dc6c081526020016a31a17e847807b1bc00000081526020016000815250600560026004811062000209576200020962000479565b6005020160008201518160000155602082015181600101556040820151816002015560608201518160030155608082015181600401559050506040518060a001604052806367ecee8081526020016368134f808152602001623d090081526020016a31a17e847807b1bc00000081526020016000815250600560036004811062000297576200029762000479565b600502016000820151816000015560208201518160010155604082015181600201556060820151816003015560808201518160040155905050505050506200048f565b600080546001600160a01b038381166001600160a01b0319831681178455604051919092169283917f8be0079c531659141344cd1fd0a4f28419497f9722a3daafe3b4186f6b6457e09190a35050565b6000546001600160a01b031633146200038a5760405162461bcd60e51b815260206004820181905260248201527f4f776e61626c653a2063616c6c6572206973206e6f7420746865206f776e657260448201526064015b60405180910390fd5b6001600160a01b038116620003f15760405162461bcd60e51b815260206004820152602660248201527f4f776e61626c653a206e6577206f776e657220697320746865207a65726f206160448201526564647265737360d01b606482015260840162000381565b620003fc81620002da565b50565b80516001600160a01b03811681146200041757600080fd5b919050565b600080600080608085870312156200043357600080fd5b6200043e85620003ff565b93506200044e60208601620003ff565b92506200045e60408601620003ff565b91506200046e60608601620003ff565b905092959194509250565b634e487b7160e01b600052603260045260246000fd5b6119c8806200049f6000396000f3fe608060405234801561001057600080fd5b50600436106101735760003560e01c8063a3a40ea5116100de578063bec4de3f11610097578063cd50938311610071578063cd50938314610345578063efef39a114610358578063f2fde38b1461036b578063f952fcad1461037e57600080fd5b8063bec4de3f14610316578063c12914371461031f578063c3e4eb5c1461033257600080fd5b8063a3a40ea5146102c4578063a98ad46c146102cc578063b47dbf22146102df578063b88a802f146102e8578063bdcc95aa146102f0578063be30f0a61461030357600080fd5b80633f4ba83a116101305780633f4ba83a146102725780635c975abb1461027a578063715018a61461028c5780637b0a47ee146102945780638456cb59146102ab5780638da5cb5b146102b357600080fd5b80630c3c048c146101785780631959a002146101a85780631dafe16b146101f25780632e37eef61461020f5780633c1c45e11461024a5780633ea521ef1461025d575b600080fd5b60045461018b906001600160a01b031681565b6040516001600160a01b0390911681526020015b60405180910390f35b6101d76101b636600461174c565b60196020526000908152604090208054600182015460029092015490919083565b6040805193845260208401929092529082015260600161019f565b601c546101ff9060ff1681565b604051901515815260200161019f565b61022261021d36600461177c565b610387565b604080519586526020860194909452928401919091526060830152608082015260a00161019f565b60025461018b906001600160a01b031681565b61027061026b36600461177c565b6103bc565b005b6102706104c9565b600054600160a01b900460ff166101ff565b6102706104fd565b61029d601d5481565b60405190815260200161019f565b610270610531565b6000546001600160a01b031661018b565b61029d610563565b60035461018b906001600160a01b031681565b61029d601a5481565b610270610608565b6102706102fe366004611795565b61095d565b6102706103113660046117c1565b610b4a565b61029d601e5481565b61027061032d3660046117f1565b610b7f565b61027061034036600461177c565b610bc3565b6102706103533660046117c1565b610d7e565b61027061036636600461177c565b610e49565b61027061037936600461174c565b611562565b61029d601b5481565b6005816004811061039757600080fd5b6005020180546001820154600283015460038401546004909401549294509092909185565b6000546001600160a01b031633146103ef5760405162461bcd60e51b81526004016103e690611826565b60405180910390fd5b6003546001600160a01b031663a9059cbb6104126000546001600160a01b031690565b6040516001600160e01b031960e084901b1681526001600160a01b039091166004820152602481018490526044016020604051808303816000875af115801561045f573d6000803e3d6000fd5b505050506040513d601f19601f82011682018060405250810190610483919061185b565b6104c65760405162461bcd60e51b81526020600482015260146024820152731554d115081d1c985b9cd9995c8819985a5b195960621b60448201526064016103e6565b50565b6000546001600160a01b031633146104f35760405162461bcd60e51b81526004016103e690611826565b6104fb6115fa565b565b6000546001600160a01b031633146105275760405162461bcd60e51b81526004016103e690611826565b6104fb6000611697565b6000546001600160a01b0316331461055b5760405162461bcd60e51b81526004016103e690611826565b6104fb6116e7565b6000805b60048110156105cd576005816004811061058357610583611878565b600502015442108015906105b15750600581600481106105a5576105a5611878565b60050201600101544211155b156105bb57919050565b806105c5816118a4565b915050610567565b5060405162461bcd60e51b815260206004820152600f60248201526e4e6f2061637469766520706861736560881b60448201526064016103e6565b60026001540361065a5760405162461bcd60e51b815260206004820152601f60248201527f5265656e7472616e637947756172643a207265656e7472616e742063616c6c0060448201526064016103e6565b6002600155600054600160a01b900460ff16156106895760405162461bcd60e51b81526004016103e6906118bd565b601c5460ff166106d15760405162461bcd60e51b815260206004820152601360248201527214995dd85c991cc81b9bdd08195b98589b1959606a1b60448201526064016103e6565b33600090815260196020526040902080546107235760405162461bcd60e51b8152602060048201526012602482015271139bc8109313d0d2081c1d5c98da185cd95960721b60448201526064016103e6565b600081600201544261073591906118e7565b9050601e548110156107895760405162461bcd60e51b815260206004820152601860248201527f546f6f20736f6f6e20746f20636c61696d20726577617264000000000000000060448201526064016103e6565b6000620f4240601d5484600001546107a19190611900565b6107ab9190611917565b6002546040516370a0823160e01b815230600482015291925082916001600160a01b03909116906370a0823190602401602060405180830381865afa1580156107f8573d6000803e3d6000fd5b505050506040513d601f19601f8201168201806040525081019061081c9190611939565b10156108615760405162461bcd60e51b8152602060048201526014602482015273496e73756666696369656e742062616c616e636560601b60448201526064016103e6565b6000835560025460405163a9059cbb60e01b8152336004820152602481018390526001600160a01b039091169063a9059cbb906044016020604051808303816000875af11580156108b6573d6000803e3d6000fd5b505050506040513d601f19601f820116820180604052508101906108da919061185b565b61091f5760405162461bcd60e51b815260206004820152601660248201527514995dd85c99081d1c985b9cd9995c8819985a5b195960521b60448201526064016103e6565b60405181815233907f106f923f993c2149d49b4255ff723acafa1f2d94393f561d3eda32ae348f72419060200160405180910390a250506001805550565b6000546001600160a01b031633146109875760405162461bcd60e51b81526004016103e690611826565b600483106109a75760405162461bcd60e51b81526004016103e690611952565b8181116109eb5760405162461bcd60e51b8152602060048201526012602482015271496e76616c69642074696d652072616e676560701b60448201526064016103e6565b8215610a645760056109fe6001856118e7565b60048110610a0e57610a0e611878565b60050201600101548211610a645760405162461bcd60e51b815260206004820152601c60248201527f4f7665726c61707320776974682070726576696f75732070686173650000000060448201526064016103e6565b6003831015610b07576005610a7a84600161197f565b60048110610a8a57610a8a611878565b60050201541580610abb57506005610aa384600161197f565b60048110610ab357610ab3611878565b600502015481105b610b075760405162461bcd60e51b815260206004820152601860248201527f4f7665726c6170732077697468206e657874207068617365000000000000000060448201526064016103e6565b8160058460048110610b1b57610b1b611878565b60050201600001819055508060058460048110610b3a57610b3a611878565b6005020160010181905550505050565b6000546001600160a01b03163314610b745760405162461bcd60e51b81526004016103e690611826565b601a91909155601b55565b6000546001600160a01b03163314610ba95760405162461bcd60e51b81526004016103e690611826565b601c805460ff191693151593909317909255601d55601e55565b6000546001600160a01b03163314610bed5760405162461bcd60e51b81526004016103e690611826565b60048110610c0d5760405162461bcd60e51b81526004016103e690611952565b60058160048110610c2057610c20611878565b60050201600101544211610c685760405162461bcd60e51b815260206004820152600f60248201526e141a185cd9481b9bdd08195b991959608a1b60448201526064016103e6565b600060058260048110610c7d57610c7d611878565b600502019050600081600401548260030154610c9991906118e7565b90508015610d79576002546001600160a01b031663a9059cbb610cc46000546001600160a01b031690565b6040516001600160e01b031960e084901b1681526001600160a01b039091166004820152602481018490526044016020604051808303816000875af1158015610d11573d6000803e3d6000fd5b505050506040513d601f19601f82011682018060405250810190610d35919061185b565b610d795760405162461bcd60e51b8152602060048201526015602482015274109313d0d2081d1c985b9cd9995c8819985a5b1959605a1b60448201526064016103e6565b505050565b6000546001600160a01b03163314610da85760405162461bcd60e51b81526004016103e690611826565b60048210610dc85760405162461bcd60e51b81526004016103e690611952565b60058260048110610ddb57610ddb611878565b60050201544210610e265760405162461bcd60e51b8152602060048201526015602482015274141a185cd948185b1c9958591e481cdd185c9d1959605a1b60448201526064016103e6565b8060058360048110610e3a57610e3a611878565b60050201600201819055505050565b600260015403610e9b5760405162461bcd60e51b815260206004820152601f60248201527f5265656e7472616e637947756172643a207265656e7472616e742063616c6c0060448201526064016103e6565b6002600155600054600160a01b900460ff1615610eca5760405162461bcd60e51b81526004016103e6906118bd565b6000610ed4610563565b9050600060058260048110610eeb57610eeb611878565b60050201905060008311610f415760405162461bcd60e51b815260206004820152601d60248201527f416d6f756e74206d7573742062652067726561746572207468616e203000000060448201526064016103e6565b8060030154838260040154610f56919061197f565b1115610fa45760405162461bcd60e51b815260206004820152601860248201527f4578636565647320706861736520616c6c6f636174696f6e000000000000000060448201526064016103e6565b601a5415610ff757601a54831015610ff75760405162461bcd60e51b815260206004820152601660248201527542656c6f77206d696e696d756d20707572636861736560501b60448201526064016103e6565b601b541561105157601b548311156110515760405162461bcd60e51b815260206004820152601860248201527f45786365656473206d6178696d756d207075726368617365000000000000000060448201526064016103e6565b6000620f42408260020154856110679190611900565b6110719190611917565b600354604051636eb1769f60e11b815233600482015230602482015291925082916001600160a01b039091169063dd62ed3e90604401602060405180830381865afa1580156110c4573d6000803e3d6000fd5b505050506040513d601f19601f820116820180604052508101906110e89190611939565b10156111365760405162461bcd60e51b815260206004820152601b60248201527f496e73756666696369656e74205553445420616c6c6f77616e6365000000000060448201526064016103e6565b6003546040516370a0823160e01b815233600482015282916001600160a01b0316906370a0823190602401602060405180830381865afa15801561117e573d6000803e3d6000fd5b505050506040513d601f19601f820116820180604052508101906111a29190611939565b10156111f05760405162461bcd60e51b815260206004820152601960248201527f496e73756666696369656e7420555344542062616c616e63650000000000000060448201526064016103e6565b6002546040516370a0823160e01b815230600482015285916001600160a01b0316906370a0823190602401602060405180830381865afa158015611238573d6000803e3d6000fd5b505050506040513d601f19601f8201168201806040525081019061125c9190611939565b10156112aa5760405162461bcd60e51b815260206004820152601a60248201527f496e73756666696369656e7420424c4f434820696e20706f6f6c00000000000060448201526064016103e6565b6003546040516323b872dd60e01b8152336004820152306024820152604481018390526001600160a01b03909116906323b872dd906064016020604051808303816000875af1158015611301573d6000803e3d6000fd5b505050506040513d601f19601f82011682018060405250810190611325919061185b565b6113685760405162461bcd60e51b81526020600482015260146024820152731554d115081d1c985b9cd9995c8819985a5b195960621b60448201526064016103e6565b60025460405163a9059cbb60e01b8152336004820152602481018690526001600160a01b039091169063a9059cbb906044016020604051808303816000875af11580156113b9573d6000803e3d6000fd5b505050506040513d601f19601f820116820180604052508101906113dd919061185b565b6114215760405162461bcd60e51b8152602060048201526015602482015274109313d0d2081d1c985b9cd9995c8819985a5b1959605a1b60448201526064016103e6565b6004546001600160a01b03166340c10f196114446000546001600160a01b031690565b6040516001600160e01b031960e084901b1681526001600160a01b03909116600482015260248101849052604401600060405180830381600087803b15801561148c57600080fd5b505af11580156114a0573d6000803e3d6000fd5b50505050838260040160008282546114b8919061197f565b909155505033600090815260196020526040812080548692906114dc90849061197f565b9091555050336000908152601960205260408120600101805483929061150390849061197f565b9091555050336000818152601960209081526040918290204260029091015581518781529081018490527f12cb4648cf3058b17ceeb33e579f8b0bc269fe0843f3900b8e24b6c54871703c910160405180910390a25050600180555050565b6000546001600160a01b0316331461158c5760405162461bcd60e51b81526004016103e690611826565b6001600160a01b0381166115f15760405162461bcd60e51b815260206004820152602660248201527f4f776e61626c653a206e6577206f776e657220697320746865207a65726f206160448201526564647265737360d01b60648201526084016103e6565b6104c681611697565b600054600160a01b900460ff1661164a5760405162461bcd60e51b815260206004820152601460248201527314185d5cd8589b194e881b9bdd081c185d5cd95960621b60448201526064016103e6565b6000805460ff60a01b191690557f5db9ee0a495bf2e6ff9c91a7834c1ba4fdd244a5e8aa4e537bd38aeae4b073aa335b6040516001600160a01b03909116815260200160405180910390a1565b600080546001600160a01b038381166001600160a01b0319831681178455604051919092169283917f8be0079c531659141344cd1fd0a4f28419497f9722a3daafe3b4186f6b6457e09190a35050565b600054600160a01b900460ff16156117115760405162461bcd60e51b81526004016103e6906118bd565b6000805460ff60a01b1916600160a01b1790557f62e78cea01bee320cd4e420270b5ea74000d11b0c9f74754ebdbfc544b05a25861167a3390565b60006020828403121561175e57600080fd5b81356001600160a01b038116811461177557600080fd5b9392505050565b60006020828403121561178e57600080fd5b5035919050565b6000806000606084860312156117aa57600080fd5b505081359360208301359350604090920135919050565b600080604083850312156117d457600080fd5b50508035926020909101359150565b80151581146104c657600080fd5b60008060006060848603121561180657600080fd5b8335611811816117e3565b95602085013595506040909401359392505050565b6020808252818101527f4f776e61626c653a2063616c6c6572206973206e6f7420746865206f776e6572604082015260600190565b60006020828403121561186d57600080fd5b8151611775816117e3565b634e487b7160e01b600052603260045260246000fd5b634e487b7160e01b600052601160045260246000fd5b6000600182016118b6576118b661188e565b5060010190565b60208082526010908201526f14185d5cd8589b194e881c185d5cd95960821b604082015260600190565b818103818111156118fa576118fa61188e565b92915050565b80820281158282048414176118fa576118fa61188e565b60008261193457634e487b7160e01b600052601260045260246000fd5b500490565b60006020828403121561194b57600080fd5b5051919050565b602080825260139082015272092dcecc2d8d2c840e0d0c2e6ca40d2dcc8caf606b1b604082015260600190565b808201808211156118fa576118fa61188e56fea2646970667358221220e4d9a8e8027723d377106047e35bef8667a4679bd7d4d70f7dd61dce367d681064736f6c63430008140033",
  "linkReferences": {},
  "deployedLinkReferences": {}
}